{
  "contractName": "loteria",
  "abi": [
    {
      "inputs": [],
      "stateMutability": "nonpayable",
      "type": "constructor"
    },
    {
      "anonymous": false,
      "inputs": [
        {
          "indexed": false,
          "internalType": "uint256",
          "name": "",
          "type": "uint256"
        },
        {
          "indexed": false,
          "internalType": "address",
          "name": "",
          "type": "address"
        }
      ],
      "name": "boughtTicket",
      "type": "event"
    },
    {
      "anonymous": false,
      "inputs": [
        {
          "indexed": false,
          "internalType": "uint256",
          "name": "",
          "type": "uint256"
        },
        {
          "indexed": false,
          "internalType": "address",
          "name": "",
          "type": "address"
        }
      ],
      "name": "buyingTokens",
      "type": "event"
    },
    {
      "anonymous": false,
      "inputs": [
        {
          "indexed": false,
          "internalType": "uint256",
          "name": "",
          "type": "uint256"
        },
        {
          "indexed": false,
          "internalType": "address",
          "name": "",
          "type": "address"
        }
      ],
      "name": "sellTokens",
      "type": "event"
    },
    {
      "anonymous": false,
      "inputs": [
        {
          "indexed": false,
          "internalType": "uint256",
          "name": "",
          "type": "uint256"
        }
      ],
      "name": "ticketWinner",
      "type": "event"
    },
    {
      "inputs": [],
      "name": "contractAddr",
      "outputs": [
        {
          "internalType": "address",
          "name": "",
          "type": "address"
        }
      ],
      "stateMutability": "view",
      "type": "function",
      "constant": true
    },
    {
      "inputs": [],
      "name": "createdTokens",
      "outputs": [
        {
          "internalType": "uint256",
          "name": "",
          "type": "uint256"
        }
      ],
      "stateMutability": "view",
      "type": "function",
      "constant": true
    },
    {
      "inputs": [],
      "name": "owner",
      "outputs": [
        {
          "internalType": "address",
          "name": "",
          "type": "address"
        }
      ],
      "stateMutability": "view",
      "type": "function",
      "constant": true
    },
    {
      "inputs": [],
      "name": "ticketPrice",
      "outputs": [
        {
          "internalType": "uint256",
          "name": "",
          "type": "uint256"
        }
      ],
      "stateMutability": "view",
      "type": "function",
      "constant": true
    },
    {
      "inputs": [],
      "name": "winnerAddr",
      "outputs": [
        {
          "internalType": "address",
          "name": "",
          "type": "address"
        }
      ],
      "stateMutability": "view",
      "type": "function",
      "constant": true
    },
    {
      "inputs": [
        {
          "internalType": "uint256",
          "name": "_numTokens",
          "type": "uint256"
        }
      ],
      "name": "generateTokens",
      "outputs": [],
      "stateMutability": "nonpayable",
      "type": "function"
    },
    {
      "inputs": [
        {
          "internalType": "address",
          "name": "userAddress",
          "type": "address"
        },
        {
          "internalType": "uint256",
          "name": "_numTokens",
          "type": "uint256"
        }
      ],
      "name": "buyTokens",
      "outputs": [],
      "stateMutability": "payable",
      "type": "function",
      "payable": true
    },
    {
      "inputs": [],
      "name": "freeTokens",
      "outputs": [
        {
          "internalType": "uint256",
          "name": "",
          "type": "uint256"
        }
      ],
      "stateMutability": "view",
      "type": "function",
      "constant": true
    },
    {
      "inputs": [],
      "name": "jackpot",
      "outputs": [
        {
          "internalType": "uint256",
          "name": "",
          "type": "uint256"
        }
      ],
      "stateMutability": "view",
      "type": "function",
      "constant": true
    },
    {
      "inputs": [
        {
          "internalType": "address",
          "name": "userAddress",
          "type": "address"
        }
      ],
      "name": "myTokens",
      "outputs": [
        {
          "internalType": "uint256",
          "name": "",
          "type": "uint256"
        }
      ],
      "stateMutability": "view",
      "type": "function",
      "constant": true
    },
    {
      "inputs": [
        {
          "internalType": "uint256",
          "name": "_numTickets",
          "type": "uint256"
        }
      ],
      "name": "buyTicket",
      "outputs": [],
      "stateMutability": "nonpayable",
      "type": "function"
    },
    {
      "inputs": [
        {
          "internalType": "address",
          "name": "userAddress",
          "type": "address"
        }
      ],
      "name": "myTickets",
      "outputs": [
        {
          "internalType": "uint256[]",
          "name": "",
          "type": "uint256[]"
        }
      ],
      "stateMutability": "view",
      "type": "function",
      "constant": true
    },
    {
      "inputs": [],
      "name": "generateWinner",
      "outputs": [],
      "stateMutability": "nonpayable",
      "type": "function"
    },
    {
      "inputs": [
        {
          "internalType": "uint256",
          "name": "_numTokens",
          "type": "uint256"
        }
      ],
      "name": "devolverTokens",
      "outputs": [],
      "stateMutability": "payable",
      "type": "function",
      "payable": true
    }
  ],
  "bytecode": "0x6080604052612710600355600560045560006008553480156200002157600080fd5b50600354604051620000339062000124565b6200003f919062000143565b604051809103906000f0801580156200005c573d6000803e3d6000fd5b506000806101000a81548173ffffffffffffffffffffffffffffffffffffffff021916908373ffffffffffffffffffffffffffffffffffffffff16021790555033600160006101000a81548173ffffffffffffffffffffffffffffffffffffffff021916908373ffffffffffffffffffffffffffffffffffffffff16021790555030600260006101000a81548173ffffffffffffffffffffffffffffffffffffffff021916908373ffffffffffffffffffffffffffffffffffffffff1602179055506200016a565b61109d8062001a9f83390190565b6200013d8162000160565b82525050565b60006020820190506200015a600083018462000132565b92915050565b6000819050919050565b611925806200017a6000396000f3fe6080604052600436106100dd5760003560e01c806367dd74ca1161007f5780638da5cb5b116100595780638da5cb5b1461025c5780639273332314610287578063ca01ba39146102c4578063dc1df3f6146102ed576100dd565b806367dd74ca146101dd5780636b31ee01146102065780636fe8f9c514610231576100dd565b8063188af657116100bb578063188af65714610154578063222b3ff51461016b5780632e95161c1461019657806354771086146101b2576100dd565b80630752881a146100e25780631209b1f6146100fe57806315a5d9d814610129575b600080fd5b6100fc60048036038101906100f79190611164565b61032a565b005b34801561010a57600080fd5b50610113610506565b6040516101209190611728565b60405180910390f35b34801561013557600080fd5b5061013e61050c565b60405161014b91906115ab565b60405180910390f35b34801561016057600080fd5b50610169610532565b005b34801561017757600080fd5b506101806107f3565b60405161018d91906115ab565b60405180910390f35b6101b060048036038101906101ab91906111c9565b610819565b005b3480156101be57600080fd5b506101c76109e3565b6040516101d49190611728565b60405180910390f35b3480156101e957600080fd5b5061020460048036038101906101ff91906111c9565b6109e9565b005b34801561021257600080fd5b5061021b610c9e565b6040516102289190611728565b60405180910390f35b34801561023d57600080fd5b50610246610d71565b6040516102539190611728565b60405180910390f35b34801561026857600080fd5b50610271610e44565b60405161027e91906115ab565b60405180910390f35b34801561029357600080fd5b506102ae60048036038101906102a9919061113b565b610e6a565b6040516102bb9190611626565b60405180910390f35b3480156102d057600080fd5b506102eb60048036038101906102e691906111c9565b610f01565b005b3480156102f957600080fd5b50610314600480360381019061030f919061113b565b611022565b6040516103219190611728565b60405180910390f35b6000610335826110d5565b90508034101561037a576040517f08c379a0000000000000000000000000000000000000000000000000000000008152600401610371906116e8565b60405180910390fd5b600081340390503373ffffffffffffffffffffffffffffffffffffffff166108fc829081150290604051600060405180830381858888f193505050501580156103c7573d6000803e3d6000fd5b5060006103d2610d71565b905080841115610417576040517f08c379a000000000000000000000000000000000000000000000000000000000815260040161040e906116c8565b60405180910390fd5b6000809054906101000a900473ffffffffffffffffffffffffffffffffffffffff1673ffffffffffffffffffffffffffffffffffffffff1663a9059cbb86866040518363ffffffff1660e01b81526004016104739291906115fd565b602060405180830381600087803b15801561048d57600080fd5b505af11580156104a1573d6000803e3d6000fd5b505050506040513d601f19601f820116820180604052508101906104c591906111a0565b507f9d85404bd8b83639dfb807c0644305ddd5e4016d5e75b13dbf3ff251ed33c9a784866040516104f7929190611743565b60405180910390a15050505050565b60045481565b600260009054906101000a900473ffffffffffffffffffffffffffffffffffffffff1681565b33600160009054906101000a900473ffffffffffffffffffffffffffffffffffffffff1673ffffffffffffffffffffffffffffffffffffffff168173ffffffffffffffffffffffffffffffffffffffff16146105c3576040517f08c379a00000000000000000000000000000000000000000000000000000000081526004016105ba906116a8565b60405180910390fd5b60006009805490501161060b576040517f08c379a000000000000000000000000000000000000000000000000000000000815260040161060290611688565b60405180910390fd5b60006009805490509050600081426040516020016106299190611553565b6040516020818303038152906040528051906020012060001c8161064957fe5b06905060006009828154811061065b57fe5b906000526020600020015490507f538a3c5516ac2bb0305ca94c7761dbe99d36794f67945f68b368486e8cb7d8fc816040516106979190611728565b60405180910390a16007600082815260200190815260200160002060009054906101000a900473ffffffffffffffffffffffffffffffffffffffff16600560006101000a81548173ffffffffffffffffffffffffffffffffffffffff021916908373ffffffffffffffffffffffffffffffffffffffff1602179055506000809054906101000a900473ffffffffffffffffffffffffffffffffffffffff1673ffffffffffffffffffffffffffffffffffffffff166347170bb933600560009054906101000a900473ffffffffffffffffffffffffffffffffffffffff1661077c610c9e565b6040518463ffffffff1660e01b815260040161079a939291906115c6565b602060405180830381600087803b1580156107b457600080fd5b505af11580156107c8573d6000803e3d6000fd5b505050506040513d601f19601f820116820180604052508101906107ec91906111a0565b5050505050565b600560009054906101000a900473ffffffffffffffffffffffffffffffffffffffff1681565b6000811161085c576040517f08c379a000000000000000000000000000000000000000000000000000000000815260040161085390611648565b60405180910390fd5b61086533611022565b8111156108a7576040517f08c379a000000000000000000000000000000000000000000000000000000000815260040161089e90611708565b60405180910390fd5b6000809054906101000a900473ffffffffffffffffffffffffffffffffffffffff1673ffffffffffffffffffffffffffffffffffffffff166347170bb93330846040518463ffffffff1660e01b8152600401610905939291906115c6565b602060405180830381600087803b15801561091f57600080fd5b505af1158015610933573d6000803e3d6000fd5b505050506040513d601f19601f8201168201806040525081019061095791906111a0565b503373ffffffffffffffffffffffffffffffffffffffff166108fc61097b836110d5565b9081150290604051600060405180830381858888f193505050501580156109a6573d6000803e3d6000fd5b507f670f71513f56895eb08fc2119eb73d2f7262c2f6213736e8ed01fd78b96db5f581336040516109d892919061176c565b60405180910390a150565b60035481565b6000600454820290506109fb33611022565b811115610a3d576040517f08c379a0000000000000000000000000000000000000000000000000000000008152600401610a3490611668565b60405180910390fd5b6000809054906101000a900473ffffffffffffffffffffffffffffffffffffffff1673ffffffffffffffffffffffffffffffffffffffff166347170bb933600160009054906101000a900473ffffffffffffffffffffffffffffffffffffffff16846040518463ffffffff1660e01b8152600401610abd939291906115c6565b602060405180830381600087803b158015610ad757600080fd5b505af1158015610aeb573d6000803e3d6000fd5b505050506040513d601f19601f82011682018060405250810190610b0f91906111a0565b5060008090505b82811015610c995760006127104233600854604051602001610b3a9392919061156e565b6040516020818303038152906040528051906020012060001c81610b5a57fe5b069050600860008154809291906001019190505550600660003373ffffffffffffffffffffffffffffffffffffffff1673ffffffffffffffffffffffffffffffffffffffff16815260200190815260200160002060085490806001815401808255809150506001900390600052602060002001600090919091909150556009819080600181540180825580915050600190039060005260206000200160009091909190915055336007600083815260200190815260200160002060006101000a81548173ffffffffffffffffffffffffffffffffffffffff021916908373ffffffffffffffffffffffffffffffffffffffff1602179055507f13473ed5c00638b18855823a20a574d36b0905f5da7cd06ab0a202cfe3eea6048133604051610c8392919061176c565b60405180910390a1508080600101915050610b16565b505050565b60008060009054906101000a900473ffffffffffffffffffffffffffffffffffffffff1673ffffffffffffffffffffffffffffffffffffffff166370a08231600160009054906101000a900473ffffffffffffffffffffffffffffffffffffffff166040518263ffffffff1660e01b8152600401610d1c91906115ab565b60206040518083038186803b158015610d3457600080fd5b505afa158015610d48573d6000803e3d6000fd5b505050506040513d601f19601f82011682018060405250810190610d6c91906111f2565b905090565b60008060009054906101000a900473ffffffffffffffffffffffffffffffffffffffff1673ffffffffffffffffffffffffffffffffffffffff166370a08231600260009054906101000a900473ffffffffffffffffffffffffffffffffffffffff166040518263ffffffff1660e01b8152600401610def91906115ab565b60206040518083038186803b158015610e0757600080fd5b505afa158015610e1b573d6000803e3d6000fd5b505050506040513d601f19601f82011682018060405250810190610e3f91906111f2565b905090565b600160009054906101000a900473ffffffffffffffffffffffffffffffffffffffff1681565b6060600660008373ffffffffffffffffffffffffffffffffffffffff1673ffffffffffffffffffffffffffffffffffffffff168152602001908152602001600020805480602002602001604051908101604052809291908181526020018280548015610ef557602002820191906000526020600020905b815481526020019060010190808311610ee1575b50505050509050919050565b33600160009054906101000a900473ffffffffffffffffffffffffffffffffffffffff1673ffffffffffffffffffffffffffffffffffffffff168173ffffffffffffffffffffffffffffffffffffffff1614610f92576040517f08c379a0000000000000000000000000000000000000000000000000000000008152600401610f89906116a8565b60405180910390fd5b6000809054906101000a900473ffffffffffffffffffffffffffffffffffffffff1673ffffffffffffffffffffffffffffffffffffffff16634ee22adf836040518263ffffffff1660e01b8152600401610fec9190611728565b600060405180830381600087803b15801561100657600080fd5b505af115801561101a573d6000803e3d6000fd5b505050505050565b60008060009054906101000a900473ffffffffffffffffffffffffffffffffffffffff1673ffffffffffffffffffffffffffffffffffffffff166370a08231836040518263ffffffff1660e01b815260040161107e91906115ab565b60206040518083038186803b15801561109657600080fd5b505afa1580156110aa573d6000803e3d6000fd5b505050506040513d601f19601f820116820180604052508101906110ce91906111f2565b9050919050565b600065886c98b7600082029050919050565b6000813590506110f6816118aa565b92915050565b60008151905061110b816118c1565b92915050565b600081359050611120816118d8565b92915050565b600081519050611135816118d8565b92915050565b60006020828403121561114d57600080fd5b600061115b848285016110e7565b91505092915050565b6000806040838503121561117757600080fd5b6000611185858286016110e7565b925050602061119685828601611111565b9150509250929050565b6000602082840312156111b257600080fd5b60006111c0848285016110fc565b91505092915050565b6000602082840312156111db57600080fd5b60006111e984828501611111565b91505092915050565b60006020828403121561120457600080fd5b600061121284828501611126565b91505092915050565b6000611227838361151e565b60208301905092915050565b61123c81611839565b82525050565b61125361124e826117f1565b61186f565b82525050565b611262816117df565b82525050565b6000611273826117a5565b61127d81856117bd565b935061128883611795565b8060005b838110156112b95781516112a0888261121b565b97506112ab836117b0565b92505060018101905061128c565b5085935050505092915050565b60006112d36021836117ce565b91507f596f75206d7573742073656c6c206d6f7265207468616e203020746f6b656e7360008301527f2e000000000000000000000000000000000000000000000000000000000000006020830152604082019050919050565b6000611339601c836117ce565b91507f596f75206e65656420746f20627579206d6f726520746f6b656e7321000000006000830152602082019050919050565b6000611379601b836117ce565b91507f5468657265277320616e79207469636b65747320626f756768742100000000006000830152602082019050919050565b60006113b9602a836117ce565b91507f596f7520617265206e6f7420616c6c6f77656420746f2075736572207468697360008301527f2066756e6374696f6e2e000000000000000000000000000000000000000000006020830152604082019050919050565b600061141f6020836117ce565b91507f4275792061206672656520616d6f756e74206f6620746f6b656e7320706c732e6000830152602082019050919050565b600061145f6028836117ce565b91507f427579206c65737320746f6b656e73206f72207061792077697468206d6f726560008301527f204574686572732e0000000000000000000000000000000000000000000000006020830152604082019050919050565b60006114c56026836117ce565b91507f596f7520646f6e2774206861766520656e6f7567687420746f6b656e7320746f60008301527f2073656c6c2e00000000000000000000000000000000000000000000000000006020830152604082019050919050565b6115278161182f565b82525050565b6115368161182f565b82525050565b61154d6115488261182f565b611893565b82525050565b600061155f828461153c565b60208201915081905092915050565b600061157a828661153c565b60208201915061158a8285611242565b60148201915061159a828461153c565b602082019150819050949350505050565b60006020820190506115c06000830184611259565b92915050565b60006060820190506115db6000830186611233565b6115e86020830185611259565b6115f5604083018461152d565b949350505050565b60006040820190506116126000830185611259565b61161f602083018461152d565b9392505050565b600060208201905081810360008301526116408184611268565b905092915050565b60006020820190508181036000830152611661816112c6565b9050919050565b600060208201905081810360008301526116818161132c565b9050919050565b600060208201905081810360008301526116a18161136c565b9050919050565b600060208201905081810360008301526116c1816113ac565b9050919050565b600060208201905081810360008301526116e181611412565b9050919050565b6000602082019050818103600083015261170181611452565b9050919050565b60006020820190508181036000830152611721816114b8565b9050919050565b600060208201905061173d600083018461152d565b92915050565b6000604082019050611758600083018561152d565b6117656020830184611259565b9392505050565b6000604082019050611781600083018561152d565b61178e6020830184611233565b9392505050565b6000819050602082019050919050565b600081519050919050565b6000602082019050919050565b600082825260208201905092915050565b600082825260208201905092915050565b60006117ea8261180f565b9050919050565b60006117fc8261180f565b9050919050565b60008115159050919050565b600073ffffffffffffffffffffffffffffffffffffffff82169050919050565b6000819050919050565b60006118448261184b565b9050919050565b60006118568261185d565b9050919050565b60006118688261180f565b9050919050565b600061187a82611881565b9050919050565b600061188c8261189d565b9050919050565b6000819050919050565b60008160601b9050919050565b6118b3816117df565b81146118be57600080fd5b50565b6118ca81611803565b81146118d557600080fd5b50565b6118e18161182f565b81146118ec57600080fd5b5056fea2646970667358221220e41ac2efbedfc4d6eb67a1e1a224113398ca2fc70274530399f98e5a3f861f5c64736f6c63430006080033608060405234801561001057600080fd5b5060405161109d38038061109d83398181016040528101906100329190610099565b806002819055506002546000803373ffffffffffffffffffffffffffffffffffffffff1673ffffffffffffffffffffffffffffffffffffffff16815260200190815260200160002081905550506100e3565b600081519050610093816100cc565b92915050565b6000602082840312156100ab57600080fd5b60006100b984828501610084565b91505092915050565b6000819050919050565b6100d5816100c2565b81146100e057600080fd5b50565b610fab806100f26000396000f3fe608060405234801561001057600080fd5b50600436106100a95760003560e01c806347170bb91161007157806347170bb9146101685780634ee22adf1461019857806370a08231146101b457806395d89b41146101e4578063a9059cbb14610202578063dd62ed3e14610232576100a9565b806306fdde03146100ae578063095ea7b3146100cc57806318160ddd146100fc57806323b872dd1461011a578063313ce5671461014a575b600080fd5b6100b6610262565b6040516100c39190610e3a565b60405180910390f35b6100e660048036038101906100e19190610d54565b61029b565b6040516100f39190610e1f565b60405180910390f35b61010461038d565b6040516101119190610e5c565b60405180910390f35b610134600480360381019061012f9190610d05565b610397565b6040516101419190610e1f565b60405180910390f35b610152610712565b60405161015f9190610e77565b60405180910390f35b610182600480360381019061017d9190610d05565b610717565b60405161018f9190610e1f565b60405180910390f35b6101b260048036038101906101ad9190610d90565b6108fa565b005b6101ce60048036038101906101c99190610ca0565b610959565b6040516101db9190610e5c565b60405180910390f35b6101ec6109a1565b6040516101f99190610e3a565b60405180910390f35b61021c60048036038101906102179190610d54565b6109da565b6040516102299190610e1f565b60405180910390f35b61024c60048036038101906102479190610cc9565b610bbc565b6040516102599190610e5c565b60405180910390f35b6040518060400160405280600a81526020017f455243323042617369630000000000000000000000000000000000000000000081525081565b600081600160003373ffffffffffffffffffffffffffffffffffffffff1673ffffffffffffffffffffffffffffffffffffffff16815260200190815260200160002060008573ffffffffffffffffffffffffffffffffffffffff1673ffffffffffffffffffffffffffffffffffffffff168152602001908152602001600020819055508273ffffffffffffffffffffffffffffffffffffffff163373ffffffffffffffffffffffffffffffffffffffff167f8c5be1e5ebec7d5bd14f71427d1e84f3dd0314c0f7b2291e5b200ac8c7c3b9258460405161037b9190610e5c565b60405180910390a36001905092915050565b6000600254905090565b60008060008573ffffffffffffffffffffffffffffffffffffffff1673ffffffffffffffffffffffffffffffffffffffff168152602001908152602001600020548211156103e457600080fd5b600160008573ffffffffffffffffffffffffffffffffffffffff1673ffffffffffffffffffffffffffffffffffffffff16815260200190815260200160002060003373ffffffffffffffffffffffffffffffffffffffff1673ffffffffffffffffffffffffffffffffffffffff1681526020019081526020016000205482111561046d57600080fd5b6104be826000808773ffffffffffffffffffffffffffffffffffffffff1673ffffffffffffffffffffffffffffffffffffffff16815260200190815260200160002054610c4390919063ffffffff16565b6000808673ffffffffffffffffffffffffffffffffffffffff1673ffffffffffffffffffffffffffffffffffffffff1681526020019081526020016000208190555061058f82600160008773ffffffffffffffffffffffffffffffffffffffff1673ffffffffffffffffffffffffffffffffffffffff16815260200190815260200160002060003373ffffffffffffffffffffffffffffffffffffffff1673ffffffffffffffffffffffffffffffffffffffff16815260200190815260200160002054610c4390919063ffffffff16565b600160008673ffffffffffffffffffffffffffffffffffffffff1673ffffffffffffffffffffffffffffffffffffffff16815260200190815260200160002060003373ffffffffffffffffffffffffffffffffffffffff1673ffffffffffffffffffffffffffffffffffffffff16815260200190815260200160002081905550610660826000808673ffffffffffffffffffffffffffffffffffffffff1673ffffffffffffffffffffffffffffffffffffffff16815260200190815260200160002054610c5a90919063ffffffff16565b6000808573ffffffffffffffffffffffffffffffffffffffff1673ffffffffffffffffffffffffffffffffffffffff168152602001908152602001600020819055508273ffffffffffffffffffffffffffffffffffffffff168473ffffffffffffffffffffffffffffffffffffffff167fddf252ad1be2c89b69c2b068fc378daa952ba7f163c4a11628f55a4df523b3ef846040516106ff9190610e5c565b60405180910390a3600190509392505050565b600281565b60008060008573ffffffffffffffffffffffffffffffffffffffff1673ffffffffffffffffffffffffffffffffffffffff1681526020019081526020016000205482111561076457600080fd5b6107b5826000808773ffffffffffffffffffffffffffffffffffffffff1673ffffffffffffffffffffffffffffffffffffffff16815260200190815260200160002054610c4390919063ffffffff16565b6000808673ffffffffffffffffffffffffffffffffffffffff1673ffffffffffffffffffffffffffffffffffffffff16815260200190815260200160002081905550610848826000808673ffffffffffffffffffffffffffffffffffffffff1673ffffffffffffffffffffffffffffffffffffffff16815260200190815260200160002054610c5a90919063ffffffff16565b6000808573ffffffffffffffffffffffffffffffffffffffff1673ffffffffffffffffffffffffffffffffffffffff168152602001908152602001600020819055508273ffffffffffffffffffffffffffffffffffffffff168473ffffffffffffffffffffffffffffffffffffffff167fddf252ad1be2c89b69c2b068fc378daa952ba7f163c4a11628f55a4df523b3ef846040516108e79190610e5c565b60405180910390a3600190509392505050565b80600260008282540192505081905550806000803373ffffffffffffffffffffffffffffffffffffffff1673ffffffffffffffffffffffffffffffffffffffff1681526020019081526020016000206000828254019250508190555050565b60008060008373ffffffffffffffffffffffffffffffffffffffff1673ffffffffffffffffffffffffffffffffffffffff168152602001908152602001600020549050919050565b6040518060400160405280600981526020017f4a424a2d544f4b454e000000000000000000000000000000000000000000000081525081565b60008060003373ffffffffffffffffffffffffffffffffffffffff1673ffffffffffffffffffffffffffffffffffffffff16815260200190815260200160002054821115610a2757600080fd5b610a78826000803373ffffffffffffffffffffffffffffffffffffffff1673ffffffffffffffffffffffffffffffffffffffff16815260200190815260200160002054610c4390919063ffffffff16565b6000803373ffffffffffffffffffffffffffffffffffffffff1673ffffffffffffffffffffffffffffffffffffffff16815260200190815260200160002081905550610b0b826000808673ffffffffffffffffffffffffffffffffffffffff1673ffffffffffffffffffffffffffffffffffffffff16815260200190815260200160002054610c5a90919063ffffffff16565b6000808573ffffffffffffffffffffffffffffffffffffffff1673ffffffffffffffffffffffffffffffffffffffff168152602001908152602001600020819055508273ffffffffffffffffffffffffffffffffffffffff163373ffffffffffffffffffffffffffffffffffffffff167fddf252ad1be2c89b69c2b068fc378daa952ba7f163c4a11628f55a4df523b3ef84604051610baa9190610e5c565b60405180910390a36001905092915050565b6000600160008473ffffffffffffffffffffffffffffffffffffffff1673ffffffffffffffffffffffffffffffffffffffff16815260200190815260200160002060008373ffffffffffffffffffffffffffffffffffffffff1673ffffffffffffffffffffffffffffffffffffffff16815260200190815260200160002054905092915050565b600082821115610c4f57fe5b818303905092915050565b600080828401905083811015610c6c57fe5b8091505092915050565b600081359050610c8581610f47565b92915050565b600081359050610c9a81610f5e565b92915050565b600060208284031215610cb257600080fd5b6000610cc084828501610c76565b91505092915050565b60008060408385031215610cdc57600080fd5b6000610cea85828601610c76565b9250506020610cfb85828601610c76565b9150509250929050565b600080600060608486031215610d1a57600080fd5b6000610d2886828701610c76565b9350506020610d3986828701610c76565b9250506040610d4a86828701610c8b565b9150509250925092565b60008060408385031215610d6757600080fd5b6000610d7585828601610c76565b9250506020610d8685828601610c8b565b9150509250929050565b600060208284031215610da257600080fd5b6000610db084828501610c8b565b91505092915050565b610dc281610ec0565b82525050565b6000610dd382610e92565b610ddd8185610e9d565b9350610ded818560208601610f03565b610df681610f36565b840191505092915050565b610e0a81610eec565b82525050565b610e1981610ef6565b82525050565b6000602082019050610e346000830184610db9565b92915050565b60006020820190508181036000830152610e548184610dc8565b905092915050565b6000602082019050610e716000830184610e01565b92915050565b6000602082019050610e8c6000830184610e10565b92915050565b600081519050919050565b600082825260208201905092915050565b6000610eb982610ecc565b9050919050565b60008115159050919050565b600073ffffffffffffffffffffffffffffffffffffffff82169050919050565b6000819050919050565b600060ff82169050919050565b60005b83811015610f21578082015181840152602081019050610f06565b83811115610f30576000848401525b50505050565b6000601f19601f8301169050919050565b610f5081610eae565b8114610f5b57600080fd5b50565b610f6781610eec565b8114610f7257600080fd5b5056fea2646970667358221220942c708381e813d974c9cab5784c3e6750af1b75e4352c6d52971e7c36c5d67064736f6c63430006080033",
  "immutableReferences": {},
  "source": "// SPDX-License-Identifier: MIT\r\npragma solidity >0.4.4 < 0.8.0;\r\npragma experimental ABIEncoderV2;\r\nimport \"./ERC20.sol\";\r\n\r\n/// @title Lottery\r\n/// @author puac235\r\n/// @notice Use to make a lottery with ERC20 Tokens\r\n\r\ncontract loteria{\r\n    \r\n    // Instancia del contrato Token\r\n    ERC20Basic private token;\r\n\r\n    // Addresses\r\n    address public owner;\r\n    address public contractAddr;\r\n\r\n    // # of tokens to make\r\n    uint public createdTokens = 10000;\r\n\r\n    // Buy tokens event\r\n    event buyingTokens(uint, address);\r\n\r\n    constructor() public {\r\n\r\n        token = new ERC20Basic(createdTokens);\r\n        owner = msg.sender;\r\n        contractAddr = address(this);\r\n\r\n    }\r\n\r\n    // ------------------------------ TOKEN ------------------------------------\r\n\r\n    // establish the token price in ethers\r\n    function tokenPrice(uint _numTokens) internal pure returns (uint) {\r\n        return _numTokens * (0.00015 ether);\r\n    }\r\n\r\n    // Generate tokens\r\n    function generateTokens(uint _numTokens) public only(msg.sender) {\r\n        token.increaseTotalSuply(_numTokens);\r\n    }\r\n\r\n    // Modifier to user functions only for owner\r\n    modifier only(address _address){\r\n        require(_address == owner, \"You are not allowed to user this function.\");\r\n        _;\r\n    }\r\n\r\n    // Buy tokens to buy lottery tickets\r\n    function buyTokens(address userAddress, uint _numTokens) public payable{\r\n\r\n        // Calculate the tokens cost\r\n        uint cost = tokenPrice(_numTokens);\r\n        // Require the ethers value be same or more than tokens price\r\n        require(msg.value >= cost, \"Buy less tokens or pay with more Ethers.\");\r\n\r\n        // Change of amount of money\r\n        uint returnValue = msg.value - cost;\r\n        // Transference of the difference\r\n        msg.sender.transfer(returnValue);\r\n\r\n        // Get the contract tokens balance\r\n        uint balance = freeTokens();\r\n\r\n        // Filter to evaluate the tonkens to buy with the free tokens\r\n        require(_numTokens <= balance, \"Buy a free amount of tokens pls.\");\r\n\r\n        // Transfer of tokens to the buyer\r\n        token.transfer(userAddress, _numTokens);\r\n\r\n        // Emit buyingTokens event\r\n        emit buyingTokens(_numTokens, userAddress);\r\n\r\n    }\r\n\r\n    // token balance in the contract\r\n    function freeTokens() public view returns (uint) {\r\n        return token.balanceOf(contractAddr);\r\n    }\r\n\r\n    // Get the token balance in the jackpot\r\n    function jackpot() public view returns (uint) {\r\n        return token.balanceOf(owner);\r\n    }\r\n\r\n    // user's balance tokens\r\n    function myTokens(address userAddress) public view returns (uint) {\r\n        return token.balanceOf(userAddress);\r\n    }\r\n\r\n    // ------------------------------ LOTTERY ------------------------------------\r\n\r\n    // Ticket price\r\n    uint public ticketPrice = 5;\r\n\r\n    // Winner \r\n    address public winnerAddr;\r\n\r\n    // Relation to the user & tickets\r\n    mapping(address => uint []) idUserTickets;\r\n    // Relation to identify the winner\r\n    mapping(uint => address) ticketDNA;\r\n    // Random\r\n    uint randNonce = 0;\r\n    // Tickets generated\r\n    uint [] boughtTickets;\r\n    // Events\r\n    event boughtTicket(uint, address);  // when a ticket is bought\r\n    event ticketWinner(uint);           // when a ticket win\r\n    event sellTokens(uint, address);    // when a user sell tokens\r\n\r\n    // Buy tickets function\r\n    function buyTicket(uint _numTickets) public {\r\n        // total Price of tickets to buy\r\n        uint totalPrice = _numTickets * ticketPrice;\r\n\r\n        // Filter of tokens to pay\r\n        require(totalPrice <= myTokens(msg.sender), \"You need to buy more tokens!\");\r\n        // transfer tokens to contract's owner -> jackpot\r\n        token.transferLotto(msg.sender, owner, totalPrice);\r\n\r\n        /**\r\n            Lo que esto hace es tomar la marca de tiempo actual, el msg.sender, y un nonce \r\n            (un numero que se utiliza una vez, para que no ejecutemos dos eces la mismoa funcion\r\n            de hash con los mismos parametros de entrada) en incremento. \r\n            Luego se utiliza keccak256 para convertir las entradas a un hash aleatorio convertir\r\n            ese hash a un uint, y seguidamente utilizamos % 10000 para tomar los 4 ultimos digitos.\r\n            Dando un valor aleatorio entre 0 - 9999\r\n         */\r\n\r\n        for(uint i = 0; i < _numTickets; i++){\r\n            uint random = uint(keccak256(abi.encodePacked(now, msg.sender, randNonce))) %  10000;\r\n            randNonce ++;\r\n\r\n            // Storage for the ticket data\r\n            idUserTickets[msg.sender].push(randNonce);\r\n            // number of te bougth ticket\r\n            boughtTickets.push(random);\r\n            // Assig the ticket DNA to have a winner\r\n            ticketDNA[random] = msg.sender;\r\n            // Event emit\r\n            emit boughtTicket(random, msg.sender);\r\n        }\r\n    }\r\n\r\n    // User's # of tickets view\r\n    function myTickets(address userAddress) public view returns (uint[] memory) {\r\n        return idUserTickets[userAddress];\r\n    }\r\n\r\n    // TAKE A JACKPOT WINNER!\r\n    function generateWinner() public only(msg.sender) {\r\n        // Debe haber boletos comprados para generar un ganador\r\n        require(boughtTickets.length > 0, \"There's any tickets bought!\");\r\n        // Array's length variable\r\n        uint lengthArr = boughtTickets.length;\r\n        // Choose a number between 0 to lenghtArr randomly\r\n        // election of a random position of the array\r\n        uint positionArr = uint(uint(keccak256(abi.encodePacked(now))) % lengthArr);\r\n        // Selection of the random number according with the position of the array\r\n        uint election = boughtTickets[positionArr];\r\n        // Emit of the winner's event\r\n        emit ticketWinner(election);\r\n\r\n        // get the winner address\r\n        winnerAddr =  ticketDNA[election];\r\n        // send the jackpot to the winner\r\n        token.transferLotto(msg.sender, winnerAddr, jackpot());\r\n    }\r\n\r\n    // tokens devolution to ethers\r\n    function devolverTokens(uint _numTokens) public payable {\r\n        // tokens number to sell\r\n        require(_numTokens > 0, \"You must sell more than 0 tokens.\");\r\n        // The user must have the tokens want to sell\r\n        require(_numTokens <= myTokens(msg.sender), \"You don't have enought tokens to sell.\");\r\n        // User sell the tokens\r\n        // 1. the user return the tokens\r\n        // 2. The lottery pay for the returned tokens in ethers\r\n        token.transferLotto(msg.sender, address(this), _numTokens);\r\n        msg.sender.transfer(tokenPrice(_numTokens));\r\n        // sell event emit\r\n        emit sellTokens(_numTokens, msg.sender);\r\n    }\r\n\r\n}\r\n\r\n",
  "sourcePath": "D:\\CURSO_BLOCKCHAIN\\CURSO_BLOCKCHAIN\\Loteria\\src\\contracts\\loteria.sol",
  "compiler": {
    "name": "solc",
    "version": "0.6.8+commit.0bbfe453.Emscripten.clang"
  },
  "schemaVersion": "3.4.7",
  "updatedAt": "2022-07-27T21:11:11.147Z",
  "networkType": "ethereum",
  "devdoc": {
    "author": "puac235",
    "methods": {},
    "title": "Lottery"
  },
  "userdoc": {
    "methods": {},
    "notice": "Use to make a lottery with ERC20 Tokens"
  }
}